{
  "_format": "hh-sol-artifact-1",
  "contractName": "Shield",
  "sourceName": "contracts/Shield.sol",
  "abi": [
    {
      "inputs": [
        {
          "internalType": "string",
          "name": "baseURI",
          "type": "string"
        },
        {
          "internalType": "address",
          "name": "whitelistContract",
          "type": "address"
        }
      ],
      "stateMutability": "nonpayable",
      "type": "constructor"
    },
    {
      "anonymous": false,
      "inputs": [
        {
          "indexed": true,
          "internalType": "address",
          "name": "owner",
          "type": "address"
        },
        {
          "indexed": true,
          "internalType": "address",
          "name": "approved",
          "type": "address"
        },
        {
          "indexed": true,
          "internalType": "uint256",
          "name": "tokenId",
          "type": "uint256"
        }
      ],
      "name": "Approval",
      "type": "event"
    },
    {
      "anonymous": false,
      "inputs": [
        {
          "indexed": true,
          "internalType": "address",
          "name": "owner",
          "type": "address"
        },
        {
          "indexed": true,
          "internalType": "address",
          "name": "operator",
          "type": "address"
        },
        {
          "indexed": false,
          "internalType": "bool",
          "name": "approved",
          "type": "bool"
        }
      ],
      "name": "ApprovalForAll",
      "type": "event"
    },
    {
      "anonymous": false,
      "inputs": [
        {
          "indexed": true,
          "internalType": "address",
          "name": "previousOwner",
          "type": "address"
        },
        {
          "indexed": true,
          "internalType": "address",
          "name": "newOwner",
          "type": "address"
        }
      ],
      "name": "OwnershipTransferred",
      "type": "event"
    },
    {
      "anonymous": false,
      "inputs": [
        {
          "indexed": true,
          "internalType": "address",
          "name": "from",
          "type": "address"
        },
        {
          "indexed": true,
          "internalType": "address",
          "name": "to",
          "type": "address"
        },
        {
          "indexed": true,
          "internalType": "uint256",
          "name": "tokenId",
          "type": "uint256"
        }
      ],
      "name": "Transfer",
      "type": "event"
    },
    {
      "inputs": [
        {
          "internalType": "address",
          "name": "to",
          "type": "address"
        },
        {
          "internalType": "uint256",
          "name": "tokenId",
          "type": "uint256"
        }
      ],
      "name": "approve",
      "outputs": [],
      "stateMutability": "nonpayable",
      "type": "function"
    },
    {
      "inputs": [
        {
          "internalType": "address",
          "name": "owner",
          "type": "address"
        }
      ],
      "name": "balanceOf",
      "outputs": [
        {
          "internalType": "uint256",
          "name": "",
          "type": "uint256"
        }
      ],
      "stateMutability": "view",
      "type": "function"
    },
    {
      "inputs": [
        {
          "internalType": "uint256",
          "name": "tokenId",
          "type": "uint256"
        }
      ],
      "name": "getApproved",
      "outputs": [
        {
          "internalType": "address",
          "name": "",
          "type": "address"
        }
      ],
      "stateMutability": "view",
      "type": "function"
    },
    {
      "inputs": [
        {
          "internalType": "address",
          "name": "owner",
          "type": "address"
        },
        {
          "internalType": "address",
          "name": "operator",
          "type": "address"
        }
      ],
      "name": "isApprovedForAll",
      "outputs": [
        {
          "internalType": "bool",
          "name": "",
          "type": "bool"
        }
      ],
      "stateMutability": "view",
      "type": "function"
    },
    {
      "inputs": [],
      "name": "maxTokenIds",
      "outputs": [
        {
          "internalType": "uint256",
          "name": "",
          "type": "uint256"
        }
      ],
      "stateMutability": "view",
      "type": "function"
    },
    {
      "inputs": [],
      "name": "mint",
      "outputs": [],
      "stateMutability": "payable",
      "type": "function"
    },
    {
      "inputs": [],
      "name": "name",
      "outputs": [
        {
          "internalType": "string",
          "name": "",
          "type": "string"
        }
      ],
      "stateMutability": "view",
      "type": "function"
    },
    {
      "inputs": [],
      "name": "owner",
      "outputs": [
        {
          "internalType": "address",
          "name": "",
          "type": "address"
        }
      ],
      "stateMutability": "view",
      "type": "function"
    },
    {
      "inputs": [
        {
          "internalType": "uint256",
          "name": "tokenId",
          "type": "uint256"
        }
      ],
      "name": "ownerOf",
      "outputs": [
        {
          "internalType": "address",
          "name": "",
          "type": "address"
        }
      ],
      "stateMutability": "view",
      "type": "function"
    },
    {
      "inputs": [],
      "name": "paused",
      "outputs": [
        {
          "internalType": "bool",
          "name": "",
          "type": "bool"
        }
      ],
      "stateMutability": "view",
      "type": "function"
    },
    {
      "inputs": [],
      "name": "price",
      "outputs": [
        {
          "internalType": "uint256",
          "name": "",
          "type": "uint256"
        }
      ],
      "stateMutability": "view",
      "type": "function"
    },
    {
      "inputs": [],
      "name": "renounceOwnership",
      "outputs": [],
      "stateMutability": "nonpayable",
      "type": "function"
    },
    {
      "inputs": [
        {
          "internalType": "address",
          "name": "from",
          "type": "address"
        },
        {
          "internalType": "address",
          "name": "to",
          "type": "address"
        },
        {
          "internalType": "uint256",
          "name": "tokenId",
          "type": "uint256"
        }
      ],
      "name": "safeTransferFrom",
      "outputs": [],
      "stateMutability": "nonpayable",
      "type": "function"
    },
    {
      "inputs": [
        {
          "internalType": "address",
          "name": "from",
          "type": "address"
        },
        {
          "internalType": "address",
          "name": "to",
          "type": "address"
        },
        {
          "internalType": "uint256",
          "name": "tokenId",
          "type": "uint256"
        },
        {
          "internalType": "bytes",
          "name": "data",
          "type": "bytes"
        }
      ],
      "name": "safeTransferFrom",
      "outputs": [],
      "stateMutability": "nonpayable",
      "type": "function"
    },
    {
      "inputs": [
        {
          "internalType": "address",
          "name": "operator",
          "type": "address"
        },
        {
          "internalType": "bool",
          "name": "approved",
          "type": "bool"
        }
      ],
      "name": "setApprovalForAll",
      "outputs": [],
      "stateMutability": "nonpayable",
      "type": "function"
    },
    {
      "inputs": [
        {
          "internalType": "bool",
          "name": "val",
          "type": "bool"
        }
      ],
      "name": "setPaused",
      "outputs": [],
      "stateMutability": "nonpayable",
      "type": "function"
    },
    {
      "inputs": [
        {
          "internalType": "bytes4",
          "name": "interfaceId",
          "type": "bytes4"
        }
      ],
      "name": "supportsInterface",
      "outputs": [
        {
          "internalType": "bool",
          "name": "",
          "type": "bool"
        }
      ],
      "stateMutability": "view",
      "type": "function"
    },
    {
      "inputs": [],
      "name": "symbol",
      "outputs": [
        {
          "internalType": "string",
          "name": "",
          "type": "string"
        }
      ],
      "stateMutability": "view",
      "type": "function"
    },
    {
      "inputs": [
        {
          "internalType": "uint256",
          "name": "index",
          "type": "uint256"
        }
      ],
      "name": "tokenByIndex",
      "outputs": [
        {
          "internalType": "uint256",
          "name": "",
          "type": "uint256"
        }
      ],
      "stateMutability": "view",
      "type": "function"
    },
    {
      "inputs": [],
      "name": "tokenIds",
      "outputs": [
        {
          "internalType": "uint256",
          "name": "",
          "type": "uint256"
        }
      ],
      "stateMutability": "view",
      "type": "function"
    },
    {
      "inputs": [
        {
          "internalType": "address",
          "name": "owner",
          "type": "address"
        },
        {
          "internalType": "uint256",
          "name": "index",
          "type": "uint256"
        }
      ],
      "name": "tokenOfOwnerByIndex",
      "outputs": [
        {
          "internalType": "uint256",
          "name": "",
          "type": "uint256"
        }
      ],
      "stateMutability": "view",
      "type": "function"
    },
    {
      "inputs": [
        {
          "internalType": "uint256",
          "name": "tokenId",
          "type": "uint256"
        }
      ],
      "name": "tokenURI",
      "outputs": [
        {
          "internalType": "string",
          "name": "",
          "type": "string"
        }
      ],
      "stateMutability": "view",
      "type": "function"
    },
    {
      "inputs": [],
      "name": "totalSupply",
      "outputs": [
        {
          "internalType": "uint256",
          "name": "",
          "type": "uint256"
        }
      ],
      "stateMutability": "view",
      "type": "function"
    },
    {
      "inputs": [
        {
          "internalType": "address",
          "name": "from",
          "type": "address"
        },
        {
          "internalType": "address",
          "name": "to",
          "type": "address"
        },
        {
          "internalType": "uint256",
          "name": "tokenId",
          "type": "uint256"
        }
      ],
      "name": "transferFrom",
      "outputs": [],
      "stateMutability": "nonpayable",
      "type": "function"
    },
    {
      "inputs": [
        {
          "internalType": "address",
          "name": "newOwner",
          "type": "address"
        }
      ],
      "name": "transferOwnership",
      "outputs": [],
      "stateMutability": "nonpayable",
      "type": "function"
    },
    {
      "inputs": [],
      "name": "withdraw",
      "outputs": [],
      "stateMutability": "nonpayable",
      "type": "function"
    }
  ],
  "bytecode": "0x6080604052662386f26fc10000600c556004600e553480156200002157600080fd5b506040516200419e3803806200419e83398181016040528101906200004791906200041a565b6040518060400160405280601081526020017f436861696e49444520536869656c6473000000000000000000000000000000008152506040518060400160405280600281526020017f43530000000000000000000000000000000000000000000000000000000000008152508160009081620000c49190620006cb565b508060019081620000d69190620006cb565b505050620000f9620000ed6200015460201b60201c565b6200015c60201b60201c565b81600b90816200010a9190620006cb565b5080601060006101000a81548173ffffffffffffffffffffffffffffffffffffffff021916908373ffffffffffffffffffffffffffffffffffffffff1602179055505050620007b2565b600033905090565b6000600a60009054906101000a900473ffffffffffffffffffffffffffffffffffffffff16905081600a60006101000a81548173ffffffffffffffffffffffffffffffffffffffff021916908373ffffffffffffffffffffffffffffffffffffffff1602179055508173ffffffffffffffffffffffffffffffffffffffff168173ffffffffffffffffffffffffffffffffffffffff167f8be0079c531659141344cd1fd0a4f28419497f9722a3daafe3b4186f6b6457e060405160405180910390a35050565b6000604051905090565b600080fd5b600080fd5b600080fd5b600080fd5b6000601f19601f8301169050919050565b7f4e487b7100000000000000000000000000000000000000000000000000000000600052604160045260246000fd5b6200028b8262000240565b810181811067ffffffffffffffff82111715620002ad57620002ac62000251565b5b80604052505050565b6000620002c262000222565b9050620002d0828262000280565b919050565b600067ffffffffffffffff821115620002f357620002f262000251565b5b620002fe8262000240565b9050602081019050919050565b60005b838110156200032b5780820151818401526020810190506200030e565b60008484015250505050565b60006200034e6200034884620002d5565b620002b6565b9050828152602081018484840111156200036d576200036c6200023b565b5b6200037a8482856200030b565b509392505050565b600082601f8301126200039a576200039962000236565b5b8151620003ac84826020860162000337565b91505092915050565b600073ffffffffffffffffffffffffffffffffffffffff82169050919050565b6000620003e282620003b5565b9050919050565b620003f481620003d5565b81146200040057600080fd5b50565b6000815190506200041481620003e9565b92915050565b600080604083850312156200043457620004336200022c565b5b600083015167ffffffffffffffff81111562000455576200045462000231565b5b620004638582860162000382565b9250506020620004768582860162000403565b9150509250929050565b600081519050919050565b7f4e487b7100000000000000000000000000000000000000000000000000000000600052602260045260246000fd5b60006002820490506001821680620004d357607f821691505b602082108103620004e957620004e86200048b565b5b50919050565b60008190508160005260206000209050919050565b60006020601f8301049050919050565b600082821b905092915050565b600060088302620005537fffffffffffffffffffffffffffffffffffffffffffffffffffffffffffffffff8262000514565b6200055f868362000514565b95508019841693508086168417925050509392505050565b6000819050919050565b6000819050919050565b6000620005ac620005a6620005a08462000577565b62000581565b62000577565b9050919050565b6000819050919050565b620005c8836200058b565b620005e0620005d782620005b3565b84845462000521565b825550505050565b600090565b620005f7620005e8565b62000604818484620005bd565b505050565b5b818110156200062c5762000620600082620005ed565b6001810190506200060a565b5050565b601f8211156200067b576200064581620004ef565b620006508462000504565b8101602085101562000660578190505b620006786200066f8562000504565b83018262000609565b50505b505050565b600082821c905092915050565b6000620006a06000198460080262000680565b1980831691505092915050565b6000620006bb83836200068d565b9150826002028217905092915050565b620006d68262000480565b67ffffffffffffffff811115620006f257620006f162000251565b5b620006fe8254620004ba565b6200070b82828562000630565b600060209050601f8311600181146200074357600084156200072e578287015190505b6200073a8582620006ad565b865550620007aa565b601f1984166200075386620004ef565b60005b828110156200077d5784890151825560018201915060208501945060208101905062000756565b868310156200079d578489015162000799601f8916826200068d565b8355505b6001600288020188555050505b505050505050565b6139dc80620007c26000396000f3fe6080604052600436106101815760003560e01c80635f769621116100d157806395d89b411161008a578063b88d4fde11610064578063b88d4fde14610551578063c87b56dd1461057a578063e985e9c5146105b7578063f2fde38b146105f457610181565b806395d89b41146104d2578063a035b1fe146104fd578063a22cb4651461052857610181565b80635f769621146103c05780636352211e146103eb57806370a0823114610428578063714cff5614610465578063715018a6146104905780638da5cb5b146104a757610181565b806318160ddd1161013e5780633ccfd60b116101185780633ccfd60b1461031857806342842e0e1461032f5780634f6ccce7146103585780635c975abb1461039557610181565b806318160ddd1461028757806323b872dd146102b25780632f745c59146102db57610181565b806301ffc9a71461018657806306fdde03146101c3578063081812fc146101ee578063095ea7b31461022b5780631249c58b1461025457806316c38b3c1461025e575b600080fd5b34801561019257600080fd5b506101ad60048036038101906101a8919061265e565b61061d565b6040516101ba91906126a6565b60405180910390f35b3480156101cf57600080fd5b506101d8610697565b6040516101e59190612751565b60405180910390f35b3480156101fa57600080fd5b50610215600480360381019061021091906127a9565b610729565b6040516102229190612817565b60405180910390f35b34801561023757600080fd5b50610252600480360381019061024d919061285e565b61076f565b005b61025c610886565b005b34801561026a57600080fd5b50610285600480360381019061028091906128ca565b610a64565b005b34801561029357600080fd5b5061029c610a89565b6040516102a99190612906565b60405180910390f35b3480156102be57600080fd5b506102d960048036038101906102d49190612921565b610a96565b005b3480156102e757600080fd5b5061030260048036038101906102fd919061285e565b610af6565b60405161030f9190612906565b60405180910390f35b34801561032457600080fd5b5061032d610b9b565b005b34801561033b57600080fd5b5061035660048036038101906103519190612921565b610c65565b005b34801561036457600080fd5b5061037f600480360381019061037a91906127a9565b610c85565b60405161038c9190612906565b60405180910390f35b3480156103a157600080fd5b506103aa610cf6565b6040516103b791906126a6565b60405180910390f35b3480156103cc57600080fd5b506103d5610d09565b6040516103e29190612906565b60405180910390f35b3480156103f757600080fd5b50610412600480360381019061040d91906127a9565b610d0f565b60405161041f9190612817565b60405180910390f35b34801561043457600080fd5b5061044f600480360381019061044a9190612974565b610d95565b60405161045c9190612906565b60405180910390f35b34801561047157600080fd5b5061047a610e4c565b6040516104879190612906565b60405180910390f35b34801561049c57600080fd5b506104a5610e52565b005b3480156104b357600080fd5b506104bc610e66565b6040516104c99190612817565b60405180910390f35b3480156104de57600080fd5b506104e7610e90565b6040516104f49190612751565b60405180910390f35b34801561050957600080fd5b50610512610f22565b60405161051f9190612906565b60405180910390f35b34801561053457600080fd5b5061054f600480360381019061054a91906129a1565b610f28565b005b34801561055d57600080fd5b5061057860048036038101906105739190612b16565b610f3e565b005b34801561058657600080fd5b506105a1600480360381019061059c91906127a9565b610fa0565b6040516105ae9190612751565b60405180910390f35b3480156105c357600080fd5b506105de60048036038101906105d99190612b99565b611008565b6040516105eb91906126a6565b60405180910390f35b34801561060057600080fd5b5061061b60048036038101906106169190612974565b61109c565b005b60007f780e9d63000000000000000000000000000000000000000000000000000000007bffffffffffffffffffffffffffffffffffffffffffffffffffffffff1916827bffffffffffffffffffffffffffffffffffffffffffffffffffffffff19161480610690575061068f8261111f565b5b9050919050565b6060600080546106a690612c08565b80601f01602080910402602001604051908101604052809291908181526020018280546106d290612c08565b801561071f5780601f106106f45761010080835404028352916020019161071f565b820191906000526020600020905b81548152906001019060200180831161070257829003601f168201915b5050505050905090565b600061073482611201565b6004600083815260200190815260200160002060009054906101000a900473ffffffffffffffffffffffffffffffffffffffff169050919050565b600061077a82610d0f565b90508073ffffffffffffffffffffffffffffffffffffffff168373ffffffffffffffffffffffffffffffffffffffff16036107ea576040517f08c379a00000000000000000000000000000000000000000000000000000000081526004016107e190612cab565b60405180910390fd5b8073ffffffffffffffffffffffffffffffffffffffff1661080961124c565b73ffffffffffffffffffffffffffffffffffffffff16148061083857506108378161083261124c565b611008565b5b610877576040517f08c379a000000000000000000000000000000000000000000000000000000000815260040161086e90612d3d565b60405180910390fd5b6108818383611254565b505050565b600d60009054906101000a900460ff16156108d6576040517f08c379a00000000000000000000000000000000000000000000000000000000081526004016108cd90612da9565b60405180910390fd5b601060009054906101000a900473ffffffffffffffffffffffffffffffffffffffff1673ffffffffffffffffffffffffffffffffffffffff166306c933d8336040518263ffffffff1660e01b81526004016109319190612817565b602060405180830381865afa15801561094e573d6000803e3d6000fd5b505050506040513d601f19601f820116820180604052508101906109729190612dde565b6109b1576040517f08c379a00000000000000000000000000000000000000000000000000000000081526004016109a890612e57565b60405180910390fd5b600e54600f54106109f7576040517f08c379a00000000000000000000000000000000000000000000000000000000081526004016109ee90612ec3565b60405180910390fd5b600c54341015610a3c576040517f08c379a0000000000000000000000000000000000000000000000000000000008152600401610a3390612f2f565b60405180910390fd5b6001600f6000828254610a4f9190612f7e565b92505081905550610a6233600f5461130d565b565b610a6c61132b565b80600d60006101000a81548160ff02191690831515021790555050565b6000600880549050905090565b610aa7610aa161124c565b826113a9565b610ae6576040517f08c379a0000000000000000000000000000000000000000000000000000000008152600401610add90613024565b60405180910390fd5b610af183838361143e565b505050565b6000610b0183610d95565b8210610b42576040517f08c379a0000000000000000000000000000000000000000000000000000000008152600401610b39906130b6565b60405180910390fd5b600660008473ffffffffffffffffffffffffffffffffffffffff1673ffffffffffffffffffffffffffffffffffffffff168152602001908152602001600020600083815260200190815260200160002054905092915050565b610ba361132b565b6000610bad610e66565b9050600047905060008273ffffffffffffffffffffffffffffffffffffffff1682604051610bda90613107565b60006040518083038185875af1925050503d8060008114610c17576040519150601f19603f3d011682016040523d82523d6000602084013e610c1c565b606091505b5050905080610c60576040517f08c379a0000000000000000000000000000000000000000000000000000000008152600401610c5790613168565b60405180910390fd5b505050565b610c8083838360405180602001604052806000815250610f3e565b505050565b6000610c8f610a89565b8210610cd0576040517f08c379a0000000000000000000000000000000000000000000000000000000008152600401610cc7906131fa565b60405180910390fd5b60088281548110610ce457610ce361321a565b5b90600052602060002001549050919050565b600d60009054906101000a900460ff1681565b600e5481565b600080610d1b83611737565b9050600073ffffffffffffffffffffffffffffffffffffffff168173ffffffffffffffffffffffffffffffffffffffff1603610d8c576040517f08c379a0000000000000000000000000000000000000000000000000000000008152600401610d8390613295565b60405180910390fd5b80915050919050565b60008073ffffffffffffffffffffffffffffffffffffffff168273ffffffffffffffffffffffffffffffffffffffff1603610e05576040517f08c379a0000000000000000000000000000000000000000000000000000000008152600401610dfc90613327565b60405180910390fd5b600360008373ffffffffffffffffffffffffffffffffffffffff1673ffffffffffffffffffffffffffffffffffffffff168152602001908152602001600020549050919050565b600f5481565b610e5a61132b565b610e646000611774565b565b6000600a60009054906101000a900473ffffffffffffffffffffffffffffffffffffffff16905090565b606060018054610e9f90612c08565b80601f0160208091040260200160405190810160405280929190818152602001828054610ecb90612c08565b8015610f185780601f10610eed57610100808354040283529160200191610f18565b820191906000526020600020905b815481529060010190602001808311610efb57829003601f168201915b5050505050905090565b600c5481565b610f3a610f3361124c565b838361183a565b5050565b610f4f610f4961124c565b836113a9565b610f8e576040517f08c379a0000000000000000000000000000000000000000000000000000000008152600401610f8590613024565b60405180910390fd5b610f9a848484846119a6565b50505050565b6060610fab82611201565b6000610fb5611a02565b90506000815111610fd55760405180602001604052806000815250611000565b80610fdf84611a94565b604051602001610ff0929190613383565b6040516020818303038152906040525b915050919050565b6000600560008473ffffffffffffffffffffffffffffffffffffffff1673ffffffffffffffffffffffffffffffffffffffff16815260200190815260200160002060008373ffffffffffffffffffffffffffffffffffffffff1673ffffffffffffffffffffffffffffffffffffffff16815260200190815260200160002060009054906101000a900460ff16905092915050565b6110a461132b565b600073ffffffffffffffffffffffffffffffffffffffff168173ffffffffffffffffffffffffffffffffffffffff1603611113576040517f08c379a000000000000000000000000000000000000000000000000000000000815260040161110a90613419565b60405180910390fd5b61111c81611774565b50565b60007f80ac58cd000000000000000000000000000000000000000000000000000000007bffffffffffffffffffffffffffffffffffffffffffffffffffffffff1916827bffffffffffffffffffffffffffffffffffffffffffffffffffffffff191614806111ea57507f5b5e139f000000000000000000000000000000000000000000000000000000007bffffffffffffffffffffffffffffffffffffffffffffffffffffffff1916827bffffffffffffffffffffffffffffffffffffffffffffffffffffffff1916145b806111fa57506111f982611b62565b5b9050919050565b61120a81611bcc565b611249576040517f08c379a000000000000000000000000000000000000000000000000000000000815260040161124090613295565b60405180910390fd5b50565b600033905090565b816004600083815260200190815260200160002060006101000a81548173ffffffffffffffffffffffffffffffffffffffff021916908373ffffffffffffffffffffffffffffffffffffffff160217905550808273ffffffffffffffffffffffffffffffffffffffff166112c783610d0f565b73ffffffffffffffffffffffffffffffffffffffff167f8c5be1e5ebec7d5bd14f71427d1e84f3dd0314c0f7b2291e5b200ac8c7c3b92560405160405180910390a45050565b611327828260405180602001604052806000815250611c0d565b5050565b61133361124c565b73ffffffffffffffffffffffffffffffffffffffff16611351610e66565b73ffffffffffffffffffffffffffffffffffffffff16146113a7576040517f08c379a000000000000000000000000000000000000000000000000000000000815260040161139e90613485565b60405180910390fd5b565b6000806113b583610d0f565b90508073ffffffffffffffffffffffffffffffffffffffff168473ffffffffffffffffffffffffffffffffffffffff1614806113f757506113f68185611008565b5b8061143557508373ffffffffffffffffffffffffffffffffffffffff1661141d84610729565b73ffffffffffffffffffffffffffffffffffffffff16145b91505092915050565b8273ffffffffffffffffffffffffffffffffffffffff1661145e82610d0f565b73ffffffffffffffffffffffffffffffffffffffff16146114b4576040517f08c379a00000000000000000000000000000000000000000000000000000000081526004016114ab90613517565b60405180910390fd5b600073ffffffffffffffffffffffffffffffffffffffff168273ffffffffffffffffffffffffffffffffffffffff1603611523576040517f08c379a000000000000000000000000000000000000000000000000000000000815260040161151a906135a9565b60405180910390fd5b6115308383836001611c68565b8273ffffffffffffffffffffffffffffffffffffffff1661155082610d0f565b73ffffffffffffffffffffffffffffffffffffffff16146115a6576040517f08c379a000000000000000000000000000000000000000000000000000000000815260040161159d90613517565b60405180910390fd5b6004600082815260200190815260200160002060006101000a81549073ffffffffffffffffffffffffffffffffffffffff02191690556001600360008573ffffffffffffffffffffffffffffffffffffffff1673ffffffffffffffffffffffffffffffffffffffff168152602001908152602001600020600082825403925050819055506001600360008473ffffffffffffffffffffffffffffffffffffffff1673ffffffffffffffffffffffffffffffffffffffff16815260200190815260200160002060008282540192505081905550816002600083815260200190815260200160002060006101000a81548173ffffffffffffffffffffffffffffffffffffffff021916908373ffffffffffffffffffffffffffffffffffffffff160217905550808273ffffffffffffffffffffffffffffffffffffffff168473ffffffffffffffffffffffffffffffffffffffff167fddf252ad1be2c89b69c2b068fc378daa952ba7f163c4a11628f55a4df523b3ef60405160405180910390a46117328383836001611dc6565b505050565b60006002600083815260200190815260200160002060009054906101000a900473ffffffffffffffffffffffffffffffffffffffff169050919050565b6000600a60009054906101000a900473ffffffffffffffffffffffffffffffffffffffff16905081600a60006101000a81548173ffffffffffffffffffffffffffffffffffffffff021916908373ffffffffffffffffffffffffffffffffffffffff1602179055508173ffffffffffffffffffffffffffffffffffffffff168173ffffffffffffffffffffffffffffffffffffffff167f8be0079c531659141344cd1fd0a4f28419497f9722a3daafe3b4186f6b6457e060405160405180910390a35050565b8173ffffffffffffffffffffffffffffffffffffffff168373ffffffffffffffffffffffffffffffffffffffff16036118a8576040517f08c379a000000000000000000000000000000000000000000000000000000000815260040161189f90613615565b60405180910390fd5b80600560008573ffffffffffffffffffffffffffffffffffffffff1673ffffffffffffffffffffffffffffffffffffffff16815260200190815260200160002060008473ffffffffffffffffffffffffffffffffffffffff1673ffffffffffffffffffffffffffffffffffffffff16815260200190815260200160002060006101000a81548160ff0219169083151502179055508173ffffffffffffffffffffffffffffffffffffffff168373ffffffffffffffffffffffffffffffffffffffff167f17307eab39ab6107e8899845ad3d59bd9653f200f220920489ca2b5937696c318360405161199991906126a6565b60405180910390a3505050565b6119b184848461143e565b6119bd84848484611dcc565b6119fc576040517f08c379a00000000000000000000000000000000000000000000000000000000081526004016119f3906136a7565b60405180910390fd5b50505050565b6060600b8054611a1190612c08565b80601f0160208091040260200160405190810160405280929190818152602001828054611a3d90612c08565b8015611a8a5780601f10611a5f57610100808354040283529160200191611a8a565b820191906000526020600020905b815481529060010190602001808311611a6d57829003601f168201915b5050505050905090565b606060006001611aa384611f53565b01905060008167ffffffffffffffff811115611ac257611ac16129eb565b5b6040519080825280601f01601f191660200182016040528015611af45781602001600182028036833780820191505090505b509050600082602001820190505b600115611b57578080600190039150507f3031323334353637383961626364656600000000000000000000000000000000600a86061a8153600a8581611b4b57611b4a6136c7565b5b04945060008503611b02575b819350505050919050565b60007f01ffc9a7000000000000000000000000000000000000000000000000000000007bffffffffffffffffffffffffffffffffffffffffffffffffffffffff1916827bffffffffffffffffffffffffffffffffffffffffffffffffffffffff1916149050919050565b60008073ffffffffffffffffffffffffffffffffffffffff16611bee83611737565b73ffffffffffffffffffffffffffffffffffffffff1614159050919050565b611c1783836120a6565b611c246000848484611dcc565b611c63576040517f08c379a0000000000000000000000000000000000000000000000000000000008152600401611c5a906136a7565b60405180910390fd5b505050565b611c74848484846122c3565b6001811115611cb8576040517f08c379a0000000000000000000000000000000000000000000000000000000008152600401611caf90613768565b60405180910390fd5b6000829050600073ffffffffffffffffffffffffffffffffffffffff168573ffffffffffffffffffffffffffffffffffffffff1603611cff57611cfa816122c9565b611d3e565b8373ffffffffffffffffffffffffffffffffffffffff168573ffffffffffffffffffffffffffffffffffffffff1614611d3d57611d3c8582612312565b5b5b600073ffffffffffffffffffffffffffffffffffffffff168473ffffffffffffffffffffffffffffffffffffffff1603611d8057611d7b8161247f565b611dbf565b8473ffffffffffffffffffffffffffffffffffffffff168473ffffffffffffffffffffffffffffffffffffffff1614611dbe57611dbd8482612550565b5b5b5050505050565b50505050565b6000611ded8473ffffffffffffffffffffffffffffffffffffffff166125cf565b15611f46578373ffffffffffffffffffffffffffffffffffffffff1663150b7a02611e1661124c565b8786866040518563ffffffff1660e01b8152600401611e3894939291906137dd565b6020604051808303816000875af1925050508015611e7457506040513d601f19601f82011682018060405250810190611e71919061383e565b60015b611ef6573d8060008114611ea4576040519150601f19603f3d011682016040523d82523d6000602084013e611ea9565b606091505b506000815103611eee576040517f08c379a0000000000000000000000000000000000000000000000000000000008152600401611ee5906136a7565b60405180910390fd5b805181602001fd5b63150b7a0260e01b7bffffffffffffffffffffffffffffffffffffffffffffffffffffffff1916817bffffffffffffffffffffffffffffffffffffffffffffffffffffffff191614915050611f4b565b600190505b949350505050565b600080600090507a184f03e93ff9f4daa797ed6e38ed64bf6a1f0100000000000000008310611fb1577a184f03e93ff9f4daa797ed6e38ed64bf6a1f0100000000000000008381611fa757611fa66136c7565b5b0492506040810190505b6d04ee2d6d415b85acef81000000008310611fee576d04ee2d6d415b85acef81000000008381611fe457611fe36136c7565b5b0492506020810190505b662386f26fc10000831061201d57662386f26fc100008381612013576120126136c7565b5b0492506010810190505b6305f5e1008310612046576305f5e100838161203c5761203b6136c7565b5b0492506008810190505b612710831061206b576127108381612061576120606136c7565b5b0492506004810190505b6064831061208e5760648381612084576120836136c7565b5b0492506002810190505b600a831061209d576001810190505b80915050919050565b600073ffffffffffffffffffffffffffffffffffffffff168273ffffffffffffffffffffffffffffffffffffffff1603612115576040517f08c379a000000000000000000000000000000000000000000000000000000000815260040161210c906138b7565b60405180910390fd5b61211e81611bcc565b1561215e576040517f08c379a000000000000000000000000000000000000000000000000000000000815260040161215590613923565b60405180910390fd5b61216c600083836001611c68565b61217581611bcc565b156121b5576040517f08c379a00000000000000000000000000000000000000000000000000000000081526004016121ac90613923565b60405180910390fd5b6001600360008473ffffffffffffffffffffffffffffffffffffffff1673ffffffffffffffffffffffffffffffffffffffff16815260200190815260200160002060008282540192505081905550816002600083815260200190815260200160002060006101000a81548173ffffffffffffffffffffffffffffffffffffffff021916908373ffffffffffffffffffffffffffffffffffffffff160217905550808273ffffffffffffffffffffffffffffffffffffffff16600073ffffffffffffffffffffffffffffffffffffffff167fddf252ad1be2c89b69c2b068fc378daa952ba7f163c4a11628f55a4df523b3ef60405160405180910390a46122bf600083836001611dc6565b5050565b50505050565b6008805490506009600083815260200190815260200160002081905550600881908060018154018082558091505060019003906000526020600020016000909190919091505550565b6000600161231f84610d95565b6123299190613943565b905060006007600084815260200190815260200160002054905081811461240e576000600660008673ffffffffffffffffffffffffffffffffffffffff1673ffffffffffffffffffffffffffffffffffffffff168152602001908152602001600020600084815260200190815260200160002054905080600660008773ffffffffffffffffffffffffffffffffffffffff1673ffffffffffffffffffffffffffffffffffffffff168152602001908152602001600020600084815260200190815260200160002081905550816007600083815260200190815260200160002081905550505b6007600084815260200190815260200160002060009055600660008573ffffffffffffffffffffffffffffffffffffffff1673ffffffffffffffffffffffffffffffffffffffff16815260200190815260200160002060008381526020019081526020016000206000905550505050565b600060016008805490506124939190613943565b90506000600960008481526020019081526020016000205490506000600883815481106124c3576124c261321a565b5b9060005260206000200154905080600883815481106124e5576124e461321a565b5b90600052602060002001819055508160096000838152602001908152602001600020819055506009600085815260200190815260200160002060009055600880548061253457612533613977565b5b6001900381819060005260206000200160009055905550505050565b600061255b83610d95565b905081600660008573ffffffffffffffffffffffffffffffffffffffff1673ffffffffffffffffffffffffffffffffffffffff168152602001908152602001600020600083815260200190815260200160002081905550806007600084815260200190815260200160002081905550505050565b6000808273ffffffffffffffffffffffffffffffffffffffff163b119050919050565b6000604051905090565b600080fd5b600080fd5b60007fffffffff0000000000000000000000000000000000000000000000000000000082169050919050565b61263b81612606565b811461264657600080fd5b50565b60008135905061265881612632565b92915050565b600060208284031215612674576126736125fc565b5b600061268284828501612649565b91505092915050565b60008115159050919050565b6126a08161268b565b82525050565b60006020820190506126bb6000830184612697565b92915050565b600081519050919050565b600082825260208201905092915050565b60005b838110156126fb5780820151818401526020810190506126e0565b60008484015250505050565b6000601f19601f8301169050919050565b6000612723826126c1565b61272d81856126cc565b935061273d8185602086016126dd565b61274681612707565b840191505092915050565b6000602082019050818103600083015261276b8184612718565b905092915050565b6000819050919050565b61278681612773565b811461279157600080fd5b50565b6000813590506127a38161277d565b92915050565b6000602082840312156127bf576127be6125fc565b5b60006127cd84828501612794565b91505092915050565b600073ffffffffffffffffffffffffffffffffffffffff82169050919050565b6000612801826127d6565b9050919050565b612811816127f6565b82525050565b600060208201905061282c6000830184612808565b92915050565b61283b816127f6565b811461284657600080fd5b50565b60008135905061285881612832565b92915050565b60008060408385031215612875576128746125fc565b5b600061288385828601612849565b925050602061289485828601612794565b9150509250929050565b6128a78161268b565b81146128b257600080fd5b50565b6000813590506128c48161289e565b92915050565b6000602082840312156128e0576128df6125fc565b5b60006128ee848285016128b5565b91505092915050565b61290081612773565b82525050565b600060208201905061291b60008301846128f7565b92915050565b60008060006060848603121561293a576129396125fc565b5b600061294886828701612849565b935050602061295986828701612849565b925050604061296a86828701612794565b9150509250925092565b60006020828403121561298a576129896125fc565b5b600061299884828501612849565b91505092915050565b600080604083850312156129b8576129b76125fc565b5b60006129c685828601612849565b92505060206129d7858286016128b5565b9150509250929050565b600080fd5b600080fd5b7f4e487b7100000000000000000000000000000000000000000000000000000000600052604160045260246000fd5b612a2382612707565b810181811067ffffffffffffffff82111715612a4257612a416129eb565b5b80604052505050565b6000612a556125f2565b9050612a618282612a1a565b919050565b600067ffffffffffffffff821115612a8157612a806129eb565b5b612a8a82612707565b9050602081019050919050565b82818337600083830152505050565b6000612ab9612ab484612a66565b612a4b565b905082815260208101848484011115612ad557612ad46129e6565b5b612ae0848285612a97565b509392505050565b600082601f830112612afd57612afc6129e1565b5b8135612b0d848260208601612aa6565b91505092915050565b60008060008060808587031215612b3057612b2f6125fc565b5b6000612b3e87828801612849565b9450506020612b4f87828801612849565b9350506040612b6087828801612794565b925050606085013567ffffffffffffffff811115612b8157612b80612601565b5b612b8d87828801612ae8565b91505092959194509250565b60008060408385031215612bb057612baf6125fc565b5b6000612bbe85828601612849565b9250506020612bcf85828601612849565b9150509250929050565b7f4e487b7100000000000000000000000000000000000000000000000000000000600052602260045260246000fd5b60006002820490506001821680612c2057607f821691505b602082108103612c3357612c32612bd9565b5b50919050565b7f4552433732313a20617070726f76616c20746f2063757272656e74206f776e6560008201527f7200000000000000000000000000000000000000000000000000000000000000602082015250565b6000612c956021836126cc565b9150612ca082612c39565b604082019050919050565b60006020820190508181036000830152612cc481612c88565b9050919050565b7f4552433732313a20617070726f76652063616c6c6572206973206e6f7420746f60008201527f6b656e206f776e6572206f7220617070726f76656420666f7220616c6c000000602082015250565b6000612d27603d836126cc565b9150612d3282612ccb565b604082019050919050565b60006020820190508181036000830152612d5681612d1a565b9050919050565b7f436f6e74726163742063757272656e746c792070617573656400000000000000600082015250565b6000612d936019836126cc565b9150612d9e82612d5d565b602082019050919050565b60006020820190508181036000830152612dc281612d86565b9050919050565b600081519050612dd88161289e565b92915050565b600060208284031215612df457612df36125fc565b5b6000612e0284828501612dc9565b91505092915050565b7f596f7520617265206e6f742077686974656c6973746564000000000000000000600082015250565b6000612e416017836126cc565b9150612e4c82612e0b565b602082019050919050565b60006020820190508181036000830152612e7081612e34565b9050919050565b7f4578636565646564206d6178696d756d20536869656c647320737570706c7900600082015250565b6000612ead601f836126cc565b9150612eb882612e77565b602082019050919050565b60006020820190508181036000830152612edc81612ea0565b9050919050565b7f45746865722073656e74206973206e6f7420636f727265637400000000000000600082015250565b6000612f196019836126cc565b9150612f2482612ee3565b602082019050919050565b60006020820190508181036000830152612f4881612f0c565b9050919050565b7f4e487b7100000000000000000000000000000000000000000000000000000000600052601160045260246000fd5b6000612f8982612773565b9150612f9483612773565b9250828201905080821115612fac57612fab612f4f565b5b92915050565b7f4552433732313a2063616c6c6572206973206e6f7420746f6b656e206f776e6560008201527f72206f7220617070726f76656400000000000000000000000000000000000000602082015250565b600061300e602d836126cc565b915061301982612fb2565b604082019050919050565b6000602082019050818103600083015261303d81613001565b9050919050565b7f455243373231456e756d657261626c653a206f776e657220696e646578206f7560008201527f74206f6620626f756e6473000000000000000000000000000000000000000000602082015250565b60006130a0602b836126cc565b91506130ab82613044565b604082019050919050565b600060208201905081810360008301526130cf81613093565b9050919050565b600081905092915050565b50565b60006130f16000836130d6565b91506130fc826130e1565b600082019050919050565b6000613112826130e4565b9150819050919050565b7f4661696c656420746f2073656e64204574686572000000000000000000000000600082015250565b60006131526014836126cc565b915061315d8261311c565b602082019050919050565b6000602082019050818103600083015261318181613145565b9050919050565b7f455243373231456e756d657261626c653a20676c6f62616c20696e646578206f60008201527f7574206f6620626f756e64730000000000000000000000000000000000000000602082015250565b60006131e4602c836126cc565b91506131ef82613188565b604082019050919050565b60006020820190508181036000830152613213816131d7565b9050919050565b7f4e487b7100000000000000000000000000000000000000000000000000000000600052603260045260246000fd5b7f4552433732313a20696e76616c696420746f6b656e2049440000000000000000600082015250565b600061327f6018836126cc565b915061328a82613249565b602082019050919050565b600060208201905081810360008301526132ae81613272565b9050919050565b7f4552433732313a2061646472657373207a65726f206973206e6f74206120766160008201527f6c6964206f776e65720000000000000000000000000000000000000000000000602082015250565b60006133116029836126cc565b915061331c826132b5565b604082019050919050565b6000602082019050818103600083015261334081613304565b9050919050565b600081905092915050565b600061335d826126c1565b6133678185613347565b93506133778185602086016126dd565b80840191505092915050565b600061338f8285613352565b915061339b8284613352565b91508190509392505050565b7f4f776e61626c653a206e6577206f776e657220697320746865207a65726f206160008201527f6464726573730000000000000000000000000000000000000000000000000000602082015250565b60006134036026836126cc565b915061340e826133a7565b604082019050919050565b60006020820190508181036000830152613432816133f6565b9050919050565b7f4f776e61626c653a2063616c6c6572206973206e6f7420746865206f776e6572600082015250565b600061346f6020836126cc565b915061347a82613439565b602082019050919050565b6000602082019050818103600083015261349e81613462565b9050919050565b7f4552433732313a207472616e736665722066726f6d20696e636f72726563742060008201527f6f776e6572000000000000000000000000000000000000000000000000000000602082015250565b60006135016025836126cc565b915061350c826134a5565b604082019050919050565b60006020820190508181036000830152613530816134f4565b9050919050565b7f4552433732313a207472616e7366657220746f20746865207a65726f2061646460008201527f7265737300000000000000000000000000000000000000000000000000000000602082015250565b60006135936024836126cc565b915061359e82613537565b604082019050919050565b600060208201905081810360008301526135c281613586565b9050919050565b7f4552433732313a20617070726f766520746f2063616c6c657200000000000000600082015250565b60006135ff6019836126cc565b915061360a826135c9565b602082019050919050565b6000602082019050818103600083015261362e816135f2565b9050919050565b7f4552433732313a207472616e7366657220746f206e6f6e20455243373231526560008201527f63656976657220696d706c656d656e7465720000000000000000000000000000602082015250565b60006136916032836126cc565b915061369c82613635565b604082019050919050565b600060208201905081810360008301526136c081613684565b9050919050565b7f4e487b7100000000000000000000000000000000000000000000000000000000600052601260045260246000fd5b7f455243373231456e756d657261626c653a20636f6e736563757469766520747260008201527f616e7366657273206e6f7420737570706f727465640000000000000000000000602082015250565b60006137526035836126cc565b915061375d826136f6565b604082019050919050565b6000602082019050818103600083015261378181613745565b9050919050565b600081519050919050565b600082825260208201905092915050565b60006137af82613788565b6137b98185613793565b93506137c98185602086016126dd565b6137d281612707565b840191505092915050565b60006080820190506137f26000830187612808565b6137ff6020830186612808565b61380c60408301856128f7565b818103606083015261381e81846137a4565b905095945050505050565b60008151905061383881612632565b92915050565b600060208284031215613854576138536125fc565b5b600061386284828501613829565b91505092915050565b7f4552433732313a206d696e7420746f20746865207a65726f2061646472657373600082015250565b60006138a16020836126cc565b91506138ac8261386b565b602082019050919050565b600060208201905081810360008301526138d081613894565b9050919050565b7f4552433732313a20746f6b656e20616c7265616479206d696e74656400000000600082015250565b600061390d601c836126cc565b9150613918826138d7565b602082019050919050565b6000602082019050818103600083015261393c81613900565b9050919050565b600061394e82612773565b915061395983612773565b925082820390508181111561397157613970612f4f565b5b92915050565b7f4e487b7100000000000000000000000000000000000000000000000000000000600052603160045260246000fdfea26469706673582212203b07a0302b22047644978d0d27f8964e098ba135039f49edb54a335ee4e1f84464736f6c63430008130033",
  "linkReferences": {},
  "deployedLinkReferences": {}
}